{
  "_format": "hh3-artifact-1",
  "contractName": "Voting",
  "sourceName": "contracts/voting.sol",
  "abi": [
    {
      "inputs": [],
      "stateMutability": "nonpayable",
      "type": "constructor"
    },
    {
      "inputs": [],
      "name": "candidateCount",
      "outputs": [
        {
          "internalType": "uint256",
          "name": "",
          "type": "uint256"
        }
      ],
      "stateMutability": "view",
      "type": "function"
    },
    {
      "inputs": [
        {
          "internalType": "uint256",
          "name": "",
          "type": "uint256"
        }
      ],
      "name": "candidates",
      "outputs": [
        {
          "internalType": "uint256",
          "name": "id",
          "type": "uint256"
        },
        {
          "internalType": "string",
          "name": "name",
          "type": "string"
        },
        {
          "internalType": "uint256",
          "name": "voteCount",
          "type": "uint256"
        }
      ],
      "stateMutability": "view",
      "type": "function"
    },
    {
      "inputs": [
        {
          "internalType": "uint256",
          "name": "_id",
          "type": "uint256"
        }
      ],
      "name": "getCandidate",
      "outputs": [
        {
          "internalType": "uint256",
          "name": "",
          "type": "uint256"
        },
        {
          "internalType": "string",
          "name": "",
          "type": "string"
        },
        {
          "internalType": "uint256",
          "name": "",
          "type": "uint256"
        }
      ],
      "stateMutability": "view",
      "type": "function"
    },
    {
      "inputs": [],
      "name": "getCandidateCount",
      "outputs": [
        {
          "internalType": "uint256",
          "name": "",
          "type": "uint256"
        }
      ],
      "stateMutability": "view",
      "type": "function"
    },
    {
      "inputs": [],
      "name": "getWinner",
      "outputs": [
        {
          "internalType": "string",
          "name": "winnerName",
          "type": "string"
        },
        {
          "internalType": "uint256",
          "name": "maxVotes",
          "type": "uint256"
        }
      ],
      "stateMutability": "view",
      "type": "function"
    },
    {
      "inputs": [
        {
          "internalType": "uint256",
          "name": "_candidateId",
          "type": "uint256"
        }
      ],
      "name": "vote",
      "outputs": [],
      "stateMutability": "nonpayable",
      "type": "function"
    },
    {
      "inputs": [
        {
          "internalType": "address",
          "name": "",
          "type": "address"
        }
      ],
      "name": "voters",
      "outputs": [
        {
          "internalType": "bool",
          "name": "",
          "type": "bool"
        }
      ],
      "stateMutability": "view",
      "type": "function"
    }
  ],
  "bytecode": "0x608060405234801561000f575f5ffd5b506040805180820190915260088152674a6f686e20446f6560c01b602082015261003890610094565b60408051808201909152600b81526a0a6c2e4c2d040a6dad2e8d60ab1b602082015261006390610094565b60408051808201909152600c81526b26b4b5b2902537b43739b7b760a11b602082015261008f90610094565b6102b6565b5f805490806100a283610140565b9091555050604080516060810182525f80548252602082018481529282018190526001805480820182559152815160039091027fb10e2d527612073b26eecdfd717e6a320cf44b4afac2b0732d9fcbe2b7fa0cf681019182559251919290917fb10e2d527612073b26eecdfd717e6a320cf44b4afac2b0732d9fcbe2b7fa0cf79091019061013090826101fc565b5060408201518160020155505050565b5f6001820161015d57634e487b7160e01b5f52601160045260245ffd5b5060010190565b634e487b7160e01b5f52604160045260245ffd5b600181811c9082168061018c57607f821691505b6020821081036101aa57634e487b7160e01b5f52602260045260245ffd5b50919050565b601f8211156101f757805f5260205f20601f840160051c810160208510156101d55750805b601f840160051c820191505b818110156101f4575f81556001016101e1565b50505b505050565b81516001600160401b0381111561021557610215610164565b610229816102238454610178565b846101b0565b6020601f82116001811461025b575f83156102445750848201515b5f19600385901b1c1916600184901b1784556101f4565b5f84815260208120601f198516915b8281101561028a578785015182556020948501946001909201910161026a565b50848210156102a757868401515f19600387901b60f8161c191681555b50505050600190811b01905550565b610693806102c35f395ff3fe608060405234801561000f575f5ffd5b506004361061007a575f3560e01c806335b8e8201161005857806335b8e820146100cb5780638e7ea5b2146100de578063a3ec138d146100f4578063a9a981a314610126575f5ffd5b80630121b93f1461007e57806330a56347146100935780633477ee2e146100a9575b5f5ffd5b61009161008c366004610532565b61012e565b005b5f545b6040519081526020015b60405180910390f35b6100bc6100b7366004610532565b610225565b6040516100a093929190610577565b6100bc6100d9366004610532565b6102df565b6100e66103cc565b6040516100a092919061059f565b6101166101023660046105c0565b60026020525f908152604090205460ff1681565b60405190151581526020016100a0565b6100965f5481565b335f9081526002602052604090205460ff16156101825760405162461bcd60e51b815260206004820152600d60248201526c105b1c9958591e481d9bdd1959609a1b60448201526064015b60405180910390fd5b5f8111801561019257505f548111155b6101d25760405162461bcd60e51b8152602060048201526011602482015270496e76616c69642063616e64696461746560781b6044820152606401610179565b335f908152600260205260409020805460ff19166001908117909155805482908110610200576102006105ed565b5f9182526020822060026003909202010180549161021d83610601565b919050555050565b60018181548110610234575f80fd5b5f918252602090912060039091020180546001820180549193509061025890610625565b80601f016020809104026020016040519081016040528092919081815260200182805461028490610625565b80156102cf5780601f106102a6576101008083540402835291602001916102cf565b820191905f5260205f20905b8154815290600101906020018083116102b257829003601f168201915b5050505050908060020154905083565b5f60605f5f600185815481106102f7576102f76105ed565b905f5260205f2090600302016040518060600160405290815f820154815260200160018201805461032790610625565b80601f016020809104026020016040519081016040528092919081815260200182805461035390610625565b801561039e5780601f106103755761010080835404028352916020019161039e565b820191905f5260205f20905b81548152906001019060200180831161038157829003601f168201915b5050509183525050600291909101546020918201528151908201516040909201519097919650945092505050565b6001546060905f906104145760405162461bcd60e51b8152602060048201526011602482015270139bc818d85b991a59185d195cc81e595d607a1b6044820152606401610179565b5f80805b60015481101561047d578260018281548110610436576104366105ed565b905f5260205f209060030201600201541115610475576001818154811061045f5761045f6105ed565b905f5260205f2090600302016002015492508091505b600101610418565b5060018181548110610491576104916105ed565b905f5260205f20906003020160010180546104ab90610625565b80601f01602080910402602001604051908101604052809291908181526020018280546104d790610625565b80156105225780601f106104f957610100808354040283529160200191610522565b820191905f5260205f20905b81548152906001019060200180831161050557829003601f168201915b5050505050935081925050509091565b5f60208284031215610542575f5ffd5b5035919050565b5f81518084528060208401602086015e5f602082860101526020601f19601f83011685010191505092915050565b838152606060208201525f61058f6060830185610549565b9050826040830152949350505050565b604081525f6105b16040830185610549565b90508260208301529392505050565b5f602082840312156105d0575f5ffd5b81356001600160a01b03811681146105e6575f5ffd5b9392505050565b634e487b7160e01b5f52603260045260245ffd5b5f6001820161061e57634e487b7160e01b5f52601160045260245ffd5b5060010190565b600181811c9082168061063957607f821691505b60208210810361065757634e487b7160e01b5f52602260045260245ffd5b5091905056fea2646970667358221220fbc8503374786c13d973c9329b102e58f9c0067ae62dbad01a28b1a8c95bb8f764736f6c634300081c0033",
  "linkReferences": {},
  "deployedLinkReferences": {},
  "immutableReferences": {},
  "inputSourceName": "project/contracts/voting.sol",
  "buildInfoId": "solc-0_8_28-201e955a29f3f3056c7d39db84282933612d59ad"
}